{
  "_format": "hh-sol-artifact-1",
  "contractName": "Voting",
  "sourceName": "contracts/Voting.sol",
  "abi": [
    {
      "inputs": [
        {
          "internalType": "bytes32[]",
          "name": "candidateNames",
          "type": "bytes32[]"
        },
        {
          "internalType": "uint256",
          "name": "_timeLimit",
          "type": "uint256"
        }
      ],
      "stateMutability": "nonpayable",
      "type": "constructor"
    },
    {
      "inputs": [],
      "name": "timeLimit",
      "outputs": [
        {
          "internalType": "uint256",
          "name": "",
          "type": "uint256"
        }
      ],
      "stateMutability": "view",
      "type": "function"
    },
    {
      "inputs": [
        {
          "internalType": "uint256",
          "name": "candidateIndex",
          "type": "uint256"
        }
      ],
      "name": "vote",
      "outputs": [],
      "stateMutability": "nonpayable",
      "type": "function"
    },
    {
      "inputs": [],
      "name": "winner",
      "outputs": [
        {
          "internalType": "bytes32",
          "name": "",
          "type": "bytes32"
        }
      ],
      "stateMutability": "view",
      "type": "function"
    }
  ],
  "bytecode": "0x60806040523480156200001157600080fd5b5060405162000c3638038062000c36833981810160405281019062000037919062000361565b60018251116200007e576040517f08c379a0000000000000000000000000000000000000000000000000000000008152600401620000759062000428565b60405180910390fd5b428111620000c3576040517f08c379a0000000000000000000000000000000000000000000000000000000008152600401620000ba90620004c0565b60405180910390fd5b8060028190555060005b8251811015620001595760016040518060400160405280858481518110620000fa57620000f9620004e2565b5b6020026020010151815260200160008152509080600181540180825580915050600190039060005260206000209060020201600090919091909150600082015181600001556020820151816001015550508080600101915050620000cd565b50505062000511565b6000604051905090565b600080fd5b600080fd5b600080fd5b6000601f19601f8301169050919050565b7f4e487b7100000000000000000000000000000000000000000000000000000000600052604160045260246000fd5b620001c6826200017b565b810181811067ffffffffffffffff82111715620001e857620001e76200018c565b5b80604052505050565b6000620001fd62000162565b90506200020b8282620001bb565b919050565b600067ffffffffffffffff8211156200022e576200022d6200018c565b5b602082029050602081019050919050565b600080fd5b6000819050919050565b620002598162000244565b81146200026557600080fd5b50565b60008151905062000279816200024e565b92915050565b600062000296620002908462000210565b620001f1565b90508083825260208201905060208402830185811115620002bc57620002bb6200023f565b5b835b81811015620002e95780620002d4888262000268565b845260208401935050602081019050620002be565b5050509392505050565b600082601f8301126200030b576200030a62000176565b5b81516200031d8482602086016200027f565b91505092915050565b6000819050919050565b6200033b8162000326565b81146200034757600080fd5b50565b6000815190506200035b8162000330565b92915050565b600080604083850312156200037b576200037a6200016c565b5b600083015167ffffffffffffffff8111156200039c576200039b62000171565b5b620003aa85828601620002f3565b9250506020620003bd858286016200034a565b9150509250929050565b600082825260208201905092915050565b7f4d7573742068617665206174206c6561737420322063616e6469646174657300600082015250565b600062000410601f83620003c7565b91506200041d82620003d8565b602082019050919050565b60006020820190508181036000830152620004438162000401565b9050919050565b7f54696d65206c696d69742073686f756c6420626520696e20746865206675747560008201527f7265000000000000000000000000000000000000000000000000000000000000602082015250565b6000620004a8602283620003c7565b9150620004b5826200044a565b604082019050919050565b60006020820190508181036000830152620004db8162000499565b9050919050565b7f4e487b7100000000000000000000000000000000000000000000000000000000600052603260045260246000fd5b61071580620005216000396000f3fe608060405234801561001057600080fd5b50600436106100415760003560e01c80630121b93f14610046578063c08d1fe514610062578063dfbf53ae14610080575b600080fd5b610060600480360381019061005b9190610401565b61009e565b005b61006a610228565b604051610077919061043d565b60405180910390f35b61008861022e565b6040516100959190610471565b60405180910390f35b600033905060018054905082106100ea576040517f08c379a00000000000000000000000000000000000000000000000000000000081526004016100e1906104e9565b60405180910390fd5b600015156100f78261031e565b151514610139576040517f08c379a000000000000000000000000000000000000000000000000000000000815260040161013090610555565b60405180910390fd5b60025442111561017e576040517f08c379a0000000000000000000000000000000000000000000000000000000008152600401610175906105c1565b60405180910390fd5b600060018381548110610194576101936105e1565b5b9060005260206000209060020201905060018160010160008282546101b9919061063f565b925050819055506000829080600181540180825580915050600190039060005260206000200160009091909190916101000a81548173ffffffffffffffffffffffffffffffffffffffff021916908373ffffffffffffffffffffffffffffffffffffffff160217905550505050565b60025481565b60006002544211610274576040517f08c379a000000000000000000000000000000000000000000000000000000000815260040161026b906106bf565b60405180910390fd5b6000600160008154811061028b5761028a6105e1565b5b906000526020600020906002020190506000600190505b600180549050811015610312578160010154600182815481106102c8576102c76105e1565b5b906000526020600020906002020160010154111561030557600181815481106102f4576102f36105e1565b5b906000526020600020906002020191505b80806001019150506102a2565b50806000015491505090565b600080600090505b6000805490508110156103bb5760008181548110610347576103466105e1565b5b9060005260206000200160009054906101000a900473ffffffffffffffffffffffffffffffffffffffff1673ffffffffffffffffffffffffffffffffffffffff168373ffffffffffffffffffffffffffffffffffffffff16036103ae5760019150506103c1565b8080600101915050610326565b50600090505b919050565b600080fd5b6000819050919050565b6103de816103cb565b81146103e957600080fd5b50565b6000813590506103fb816103d5565b92915050565b600060208284031215610417576104166103c6565b5b6000610425848285016103ec565b91505092915050565b610437816103cb565b82525050565b6000602082019050610452600083018461042e565b92915050565b6000819050919050565b61046b81610458565b82525050565b60006020820190506104866000830184610462565b92915050565b600082825260208201905092915050565b7f496e76616c69642063616e64696461746520696e646578210000000000000000600082015250565b60006104d360188361048c565b91506104de8261049d565b602082019050919050565b60006020820190508181036000830152610502816104c6565b9050919050565b7f566f74657220616c7265616479206361737465642074686520766f7465210000600082015250565b600061053f601e8361048c565b915061054a82610509565b602082019050919050565b6000602082019050818103600083015261056e81610532565b9050919050565b7f566f74696e672073657373696f6e2068617320656e6465642100000000000000600082015250565b60006105ab60198361048c565b91506105b682610575565b602082019050919050565b600060208201905081810360008301526105da8161059e565b9050919050565b7f4e487b7100000000000000000000000000000000000000000000000000000000600052603260045260246000fd5b7f4e487b7100000000000000000000000000000000000000000000000000000000600052601160045260246000fd5b600061064a826103cb565b9150610655836103cb565b925082820190508082111561066d5761066c610610565b5b92915050565b7f566f74696e672073657373696f6e206973206e6f7420656e6465642100000000600082015250565b60006106a9601c8361048c565b91506106b482610673565b602082019050919050565b600060208201905081810360008301526106d88161069c565b905091905056fea26469706673582212207b10d5b539ead892b7dbab9266e87f5c1bf12a33d41dfad4b996b90a647b756264736f6c63430008180033",
  "linkReferences": {},
  "deployedLinkReferences": {}
}