{
  "_format": "hh-sol-artifact-1",
  "contractName": "Computations",
  "sourceName": "contracts/Computations.sol",
  "abi": [
    {
      "inputs": [],
      "stateMutability": "nonpayable",
      "type": "constructor"
    },
    {
      "inputs": [
        {
          "internalType": "int256",
          "name": "num1",
          "type": "int256"
        },
        {
          "internalType": "int256",
          "name": "num2",
          "type": "int256"
        }
      ],
      "name": "sum",
      "outputs": [
        {
          "internalType": "int256",
          "name": "",
          "type": "int256"
        }
      ],
      "stateMutability": "pure",
      "type": "function"
    }
  ],
  "bytecode": "0x608060405234801561001057600080fd5b506101c4806100206000396000f3fe608060405234801561001057600080fd5b506004361061002b5760003560e01c80639967062d14610030575b600080fd5b61004a600480360381019061004591906100b1565b610060565b6040516100579190610100565b60405180910390f35b6000818361006e919061014a565b905092915050565b600080fd5b6000819050919050565b61008e8161007b565b811461009957600080fd5b50565b6000813590506100ab81610085565b92915050565b600080604083850312156100c8576100c7610076565b5b60006100d68582860161009c565b92505060206100e78582860161009c565b9150509250929050565b6100fa8161007b565b82525050565b600060208201905061011560008301846100f1565b92915050565b7f4e487b7100000000000000000000000000000000000000000000000000000000600052601160045260246000fd5b60006101558261007b565b91506101608361007b565b9250828201905082811215600083121683821260008412151617156101885761018761011b565b5b9291505056fea26469706673582212201d28709142e82ea2c1af236307fa8ac083ac552ed9a56a0d3cbd02b1c8ac16c864736f6c63430008180033",
  "linkReferences": {},
  "deployedLinkReferences": {}
}